:020000040800F2
:10000000F80D0020F111000895030008970300087F
:100010009B0300089F030008A303000800000000E2
:10002000000000000000000000000000A70300081E
:10003000A903000800000000AB030008AD0300089E
:100040000B1200080B1200080B1200080B1200081C
:100050000B1200080B1200080B1200080B1200080C
:100060000B1200080B1200080B1200080B120008FC
:100070000B1200080B1200080B1200080B120008EC
:100080000B1200080B1200080B1200080B120008DC
:100090000B1200080B1200080B1200080B120008CC
:1000A0000B1200080B1200080B12000811070008C1
:1000B0000B120008EF0E00080B1200080B120008CC
:1000C0000B1200080B1200080B1200080B1200089C
:1000D0000B120008671100080B1200080B12000831
:1000E0000B1200080B1200080B1200080B1200087C
:1000F0000B1200080B1200080B1200080B1200086C
:100100000B1200080B1200080B1200080B1200085B
:100110000B1200080B1200080B1200080B1200084B
:100120000B1200080B1200080B1200080B1200083B
:1001300000F002F800F067F80AA090E8000C824492
:100140008344AAF10107DA4501D100F05CF8AFF26F
:10015000090EBAE80F0013F0010F18BFFB1A43F0A5
:1001600001031847C4460000E44600000A444FF06B
:10017000000C10F8013B13F0070408BF10F8014B06
:100180001D1108BF10F8015B641E05D010F8016B4B
:10019000641E01F8016BF9D113F0080F1EBF10F8AF
:1001A000014BAD1C0C1B09D16D1E58BF01F801CBD2
:1001B000FAD505E014F8016B01F8016B6D1EF9D555
:1001C0009142D6D37047000000230024002500266A
:1001D000103A28BF78C1FBD8520728BF30C148BFAA
:1001E0000B607047662904F0D282002070471FB56B
:1001F00003F010FA04000020002103F049FFE06042
:100200001FBD10B510BD03F001FB1146FFF7EFFF56
:1002100000F008F803F01FFB03B4FFF7F2FF03BC84
:1002200000F046FF00F0DAFE4FF4A06001F000F8A5
:1002300000F0AEF900214FF4916000F0CFF90021F9
:100240004FF4916000F06DFA00F002FB00F0EFFC5B
:1002500000F0D9FC6DE04FF41171364802F09EFABF
:100260004FF41171344802F09BFA322000F0F3FE93
:100270003248006804F0FCF9044622460B4630A1DF
:10028000314802F0FDFE3148006804F0F1F90446FF
:1002900022460B462AA12E4802F0F2FE2DA2002192
:1002A000084600F064FD284A00211E2000F05FFD92
:1002B0002AA200214B2000F05AFD29A2092100208A
:1002C00000F055FD224A09211E2000F050FD26A213
:1002D00009214B2000F04BFD24A21221002000F048
:1002E00046FD244A12211E2000F041FD1BA21221CE
:1002F0004B2000F03CFD20A21B21002000F037FD28
:100300001F4A1B211E2000F032FD17A21B214B208B
:1003100000F02DFD1BA22521002000F028FD1AA2CF
:1003200025211E2000F023FD19A225214B2000F0DD
:100330001EFD90E7002C0140003401400800002021
:10034000252E336600000000360000200C0000203F
:100350003900002049696E3A0000000041000000A9
:1003600056696E3A0000000056000000496F75742F
:100370003A0000003C000020566F75743A000000FF
:100380003F000020653A0000302E383500000000A4
:1003900025000000704700BFFEE700BFFEE700BF7A
:1003A000FEE700BFFEE770477047704770470000E8
:1003B0000CB50020019000906C48006840F480303B
:1003C0006A49086000BF6948006800F40030009086
:1003D0000198401C0190009818B90198B0F5A06FE1
:1003E000F1D16248006800F4003010B101200090A3
:1003F00001E0002000900098012843D15C4800688B
:1004000040F010005A4908600846006820F00300D8
:1004100008600846006840F00200086053484068E1
:10042000524948600846406848600846406840F4C1
:10043000806048600846406820F47C1048600846A8
:10044000406840F4E81048600846006840F080705A
:10045000086000BF4548006800F000700028F9D02F
:100460004248406820F00300404948600846406820
:1004700040F00200486000BF3C48406800F00C00BB
:100480000828F9D10CBD10B5FFF792FF10BD10B5CB
:100490003648006840F0010034490860084640686A
:1004A00034490840314948600846006832490840EC
:1004B0002E4908600846006820F48020086008463D
:1004C000406820F4FE0048604FF41F008860FFF78A
:1004D000DAFF4FF000602949086010BD10B5002117
:1004E00000200022214B5B6803F00C0121B104299C
:1004F00006D0082928D107E0214B224C236027E0B1
:100500001F4B204C236023E0184B5B6803F47010F2
:10051000164B5B6803F48032022303EB904022B950
:10052000194B4343174C23600DE0104B5B6803F4F9
:10053000003323B1144B4343124C236003E0104BB0
:100540004343104C236003E00D4B0E4C236000BF6F
:1005500000BF064B5B68C3F303130C4CE15C094B13
:100560001B68CB40074C236010BD00000010024008
:10057000002002400000FFF8FFFFF6FE08ED00E05B
:1005800000127A004400002000093D0048000020CD
:1005900008B50121482001F0D5F92020ADF8000070
:1005A00010208DF8030003208DF8020069460948E9
:1005B00000F00CFF2021074800F0B5FF2020ADF827
:1005C00000006946044800F001FF2021024800F0C5
:1005D000AAFF08BD000C01400018014030B58DB0E5
:1005E00005460C46012140F60D0001F0ABF9934899
:1005F00001F00CFA914801F06DFE4FF48070ADF8F7
:10060000300018208DF8330003208DF832000CA93B
:100610008B4800F0DBFE4FF40050ADF8300018209E
:100620008DF8330003208DF832000CA9854800F0C6
:10063000CDFEADF82850ADF824400020ADF82A00DA
:10064000ADF8260009A97D4801F0B4FA6020ADF8A4
:1006500014000120ADF816000020ADF81A00ADF826
:100660001C00ADF81E000420ADF818000020ADF805
:100670002000ADF8220005A9704801F0D8FA05A9BC
:100680006E4801F016FB0020ADF80400ADF806003E
:10069000ADF808000720ADF80A000020ADF80C0006
:1006A0004FF40050ADF80E004000ADF8100001A965
:1006B000624801F09BFD0821604801F007FF082116
:1006C0005E4801F00CFF01215C4801F0CFFE0121E2
:1006D0005A4801F0D7FD0A205849383108800122D4
:1006E0000421564801F0DDFD1B208DF8000000209C
:1006F0008DF8010001208DF802008DF80300684696
:1007000000F09BFD01214D4801F0B0FD0DB030BD62
:1007100010B500204C4908800421484802F080F8B8
:1007200010BD30B58DB005460C46012142F21900CE
:1007300001F008F94448243801F068F942482438A7
:1007400001F0C8FD0120ADF8300018208DF833000D
:1007500003208DF832000CA93A4800F037FE8020C3
:10076000ADF8300018208DF8330003208DF83200EA
:100770000CA9364800F02AFEADF82850ADF8244008
:100780000020ADF82A00ADF8260009A92E4824382B
:1007900001F010FA6020ADF814000120ADF8160049
:1007A0000020ADF81A00ADF81C00ADF81E000420C2
:1007B000ADF818000020ADF82000ADF8220005A922
:1007C0002148243801F033FA05A91F48243801F0E4
:1007D00070FA0020ADF80400ADF80600ADF808008E
:1007E0000720ADF80A000020ADF80C004FF40050CF
:1007F000ADF80E004000ADF8100001A912482438F1
:1008000001F0F4FC08211048243801F05FFE0821B3
:100810000D48243801F063FE01210B48243801F013
:1008200025FE01210848243801F02CFD012106484D
:10083000243801F01BFD0DB030BD0000002C01403C
:1008400000080140000C0140243401400010014028
:1008500000B587B001214FF4017001F073F84FF437
:10086000004000F0D3FF0F20ADF8040000208DF809
:10087000070001A98A4800F0A9FD8A4802F0D8F9CA
:10088000002002908DF80C008DF80D004FF46020D0
:1008900004900020059001208DF8180002A98148DD
:1008A00002F0EDF901217F4802F015FA7D4802F0CF
:1008B00034FA00BF7B4802F035FA0028FAD17948B3
:1008C00002F03AFA00BF774802F03BFA0028FAD16A
:1008D00007B000BD10B50446072301222146714828
:1008E00002F065FA01216F4802F035FA00BF0221DB
:1008F0006C4802F0A1FB0028F9D06A4802F0BEFA69
:1009000010BD2DE9F04107460C460025002608E001
:100910003846FFF7DFFF0544052000F09CFB701C04
:10092000C6B2A642F4DBB5FBF4F080B2BDE8F081BC
:1009300010B504460A2000F08EFB2046FFF7CAFFE0
:1009400059495A4A127841F8220058480078401C08
:100950005649087008460078202816DB002000BFA2
:100960000DE0514A411C52F8211042F82010114666
:1009700051F820104E4A42F82010411CC8B21E28DF
:10098000EFDD1F21494A117000BF10BD10B50446AC
:100990000A2000F060FB2046FFF79CFF4249454AD1
:1009A000127841F8220043480078401C4149087001
:1009B00008460078202816DB002000BF0DE03E4AE4
:1009C000411C52F8211042F82010114651F8201015
:1009D0003A4A42F82010411CC8B21E28EFDD1F2100
:1009E000344A117000BF10BD10B504460A2000F053
:1009F00032FB2046FFF76EFF3149324A127841F848
:100A0000220030480078401C2E49087008460078C3
:100A1000202816DB002000BF0DE0294A411C52F8B7
:100A2000211042F82010114651F82010264A42F8B1
:100A30002010411CC8B21E28EFDD1F21214A117071
:100A400000BF10BD10B504460A2000F004FB20468C
:100A5000FFF740FF1D491E4A127841F822001C484A
:100A60000078401C1A49087008460078202816DBD8
:100A7000002000BF0DE0154A411C52F8211042F839
:100A80002010114651F82010124A42F82010411C43
:100A9000C8B21E28EFDD1F210D4A117000BF10BD26
:100AA0000008014000240140E00400203200002042
:100AB00000030020330000205C05002078030020A4
:100AC000D805002034000020F00300205406002048
:100AD00035000020680400202DE9F0410246002482
:100AE00018E0002311E052F823605D1C52F82550F5
:100AF000AE4209DD52F823005D1C52F8255042F841
:100B000023505D1C42F825005B1C0D1B6D1E9D4291
:100B1000E9DC641C4D1EA542E3DC01F00105002D5B
:100B200006DD4D1C05EBD576761052F8260015E053
:100B30000D4601EBD57C4FEA6C0C52F82C800F4629
:100B400001EBD77C4FEA6C0C0CF1010C52F82CC075
:100B500008EB0C0606EBD67C4FEA6C00BDE8F08192
:100B6000032007E00A2101E04A1ED1B20029FBDC84
:100B7000421ED0B20028F5DC7047E92007E0CB2107
:100B800001E04A1ED1B20029FBDC421ED0B200288F
:100B9000F5DC704710B50346002400BF02E0FFF704
:100BA000ECFF641C9C42FAD310BD10B50A464FF40A
:100BB0000073B44C63611AB94023B34C236003E063
:100BC0004023B14C241F2360002115E000F0800376
:100BD00023B14FF48063AB4C236103E04FF4806397
:100BE000A84C63618023A84C23604306180E802321
:100BF000241F23604B1CD9B20829E7DB4FF4007394
:100C0000A04C236110BD10B500210C20FFF7CDFFD3
:100C100000218020FFF7C9FF002404E0012100200B
:100C2000FFF7C3FF641CB4F5FC7FF7D310BD10B50C
:100C300001214FF4907000F085FE9348143800684D
:100C400020F070609049143908600846006840F050
:100C50004070086040208C49091F08608A48143899
:100C6000006820F070408849143908600846006820
:100C700040F04050086080208349091F0860814887
:100C8000406820F0F0007F4948600846406840F026
:100C900030004860481508610846406820F47060DC
:100CA00048600846406840F4407048600815086194
:100CB0000846406820F4704048600846406840F4A8
:100CC00040504860C81408614861FFF749FF4FF47D
:100CD00000606C49086180104861FFF741FF4FF4E4
:100CE000007068490861FFF73BFF00212120FFF7F2
:100CF0005CFF0021BF20FFF758FF00210620FFF70F
:100D000054FF00211320FFF750FF00212020FFF7A0
:100D10004CFFFFF778FF00210C20FFF746FF4FF450
:100D200000705849486110BD30B504460D4645F085
:100D300040000021FFF739FF44F080000021FFF759
:100D400034FF30BD30B50446A4F12000C4B2002504
:100D50000AE004EB44014D4A02EB4101485D0121E8
:100D6000FFF723FF681CC5B2062DF2DB30BD70B55E
:100D700005460E46144631462846FFF7D5FF03E0E8
:100D80002078FFF7DFFF641C20780028F8D170BDC1
:100D90002DE9F04F0746884614469946DDE909BA21
:100DA00041463846FFF7C0FF00252FE0002620E02F
:100DB000A64211D135B908F10100C1B23846FFF79A
:100DC000B3FF09E008F10102D1B204EB0A0202FB11
:100DD0000572D0B2FFF7A8FF0BEB050101EB410153
:100DE0002B4A02EBC101885D0121FFF7DEFE701C7A
:100DF000C6B2B6EB440FDBDB681CC5B204EB0A01DC
:100E000001FB0571C8B24146FFF78EFF4D45CDDBB2
:100E1000BDE8F08F2DE9F04F8346894692461E4685
:100E2000099CE11704EB5171C910A4EBC10131B960
:100E30002046E11704EB5171C1F3C70807E02046D3
:100E4000E11704EB5171C910491C01F0FF0800259E
:100E500014E049465846FFF767FF002707E005FB07
:100E600006711AF801000121FFF79FFE7F1CB742AF
:100E7000F5D309F1010000F0FF096D1C4545E8D3E9
:100E8000BDE8F08F002001401414014058000020FC
:100E9000800200207FB505460C460121022000F0AB
:100EA0005EFDADF80850ADF804400020ADF80A0032
:100EB000ADF8060001A93A4800F07CFE0122114677
:100EC000374801F0EEF91D208DF8000000208DF864
:100ED000010003208DF8020001208DF80300684610
:100EE00000F0ABF901212E4801F0C0F97FBD2DE9DA
:100EF000F04701212A4801F082FC00284DD0012151
:100F0000274801F08DFC0020FFF712FD0120FFF7BC
:100F10003DFD0220FFF768FD0320FFF793FD1F2131
:100F20002048FFF7D9FD204908601F211F48FFF71F
:100F3000D3FD1F4908601F211E48FFF7CDFD1E4944
:100F400008601F211D48FFF7C7FD1D4908601648AE
:100F5000006803F08DF906461A4A1B4B03F0A0F90E
:100F600004464FF06632194B03F098FA804603F0BE
:100F7000A5F8174908600E48006803F0A5FB8046F5
:100F800003F076FB06464FF06632124B03F088F909
:100F9000044603F093F810490860BDE8F0870000AC
:100FA00000040040000300202800002078030020F7
:100FB0001C000020F0030020200000206804002016
:100FC00024000020462575029A086B3F6666134090
:100FD0000800002066664A3F0C00002010B56FF044
:100FE000040000F074F92E4800682E49B0FBF1F0BF
:100FF0002D4908700846007800EB4001C1EBC01095
:101000004FF6FF7101EAC0002849088010BD014673
:10101000254A12784A434FF0E0235A6100229A6130
:101020001A46126942F001021A6100BF4FF0E02235
:10103000106900F001021AB100F48032002AF5D0E4
:101040004FF0E022126922F001024FF0E0231A6112
:1010500000229A6170470146144A12884A434FF0B1
:10106000E0235A6100229A611A46126942F0010295
:101070001A6100BF4FF0E022106900F001021AB1BE
:1010800000F48032002AF5D04FF0E022126922F0FD
:1010900001024FF0E0231A6100229A6170470000BC
:1010A0004400002000127A00E0020020E20200204A
:1010B000014600BF704700BF494A128802F0400253
:1010C000002AF9D0C2B2464B1B1D1A80704710B5DA
:1010D00086B00446012144F2040000F033FC4FF4D2
:1010E0000070ADF8140003208DF8160018208DF85C
:1010F000170005A93B4800F069F94FF48060ADF88E
:10110000140004208DF8170005A9364800F05EF998
:1011100025208DF8000003208DF801008DF80200D5
:1011200001208DF80300684600F087F80194002044
:10113000ADF80800ADF80A00ADF80C00ADF81000ED
:101140000C20ADF80E0001A9254801F0B0FB0122EA
:1011500040F22551224801F042FC0121204801F0D3
:1011600032FC06B010BD10B540F225511C4801F00C
:101170001BFD10B31A4801F097FCC4B21A4800884E
:1011800000F40040C8B91848008800F4804060B1FD
:101190000A2C03D000201449088020E0124800885F
:1011A00040F400401049088019E00D2C06D10E488B
:1011B000008840F480400C49088010E00A4800880C
:1011C000C0F30D0009490C5407480088401C06492B
:1011D000088008460088C72801DD0020088010BD6F
:1011E0000038014000080140E8020020D00600203D
:1011F0000948804709480047FEE7FEE7FEE7FEE7AB
:10120000FEE7FEE7FEE7FEE7FEE7FEE704480549E6
:10121000054A064B704700008F04000831010008A2
:10122000F8070020F80D0020F8090020F809002038
:1012300031490143314A1160704770B500210023E4
:101240000F22C47804B32D4C246804F4E064C4F580
:10125000E064210AC1F10403CA40447804FA03F1AE
:101260008478144021430901254C0678A15504785F
:1012700004F01F050124AC4005786D11AD0005F1A7
:10128000E025C5F8004109E0047804F01F050124B9
:10129000AC401C4D0678761145F8264070BD1A4AC0
:1012A0000A400243154B1B1F1A60704739B1134A9D
:1012B000121D12680243114B1B1D1A6006E00F4AF3
:1012C000121D126882430D4B1B1D1A6070470428C3
:1012D00008D14FF0E021096941F004014FF0E0220C
:1012E000116107E04FF0E021096921F004014FF09E
:1012F000E0221161704700000000FA050CED00E0EB
:1013000000E400E080E100E080FFFF1F10B504462C
:10131000CC48844208D10121042000F02DFB00219B
:10132000042000F029FB46E0C748844208D101218F
:10133000082000F021FB0021082000F01DFB3AE00E
:10134000C248844208D10121102000F015FB002181
:10135000102000F011FB2EE0BD48844208D101218D
:10136000202000F009FB0021202000F005FB22E0F6
:10137000B848844208D10121402000F0FDFA002144
:10138000402000F0F9FA16E0B348844208D1012168
:10139000802000F0F1FA0021802000F0EDFA0AE050
:1013A000AE48844207D10121801500F0E5FA002102
:1013B000A01500F0E1FA10BD10B50121084600F0BB
:1013C000DBFA0021012000F0D7FA10BD2DE9F04131
:1013D000024600250026002000230024002791F863
:1013E00003C00CF00F0591F803C00CF0100CBCF119
:1013F000000F03D091F802C04CEA050591F800C037
:10140000BCF1000F31D0146800202BE04FF0010C2C
:101410000CFA00F3B1F800C00CEA03069E4220D19A
:1014200083004FF00F0C0CFA03F7BC4305FA03FCE2
:101430004CEA040491F803C0BCF1280F06D14FF028
:10144000010C0CFA00FCC2F814C00AE091F803C0C9
:10145000BCF1480F05D14FF0010C0CFA00FCC2F8AA
:1014600010C0401C0828D1D31460B1F800C0BCF1F2
:10147000FF0F34DD546800202EE000F1080C4FF01F
:10148000010808FA0CF3B1F800C00CEA03069E420A
:1014900021D183004FF00F0C0CFA03F7BC4305FA7F
:1014A00003FC4CEA040491F803C0BCF1280F05D1F9
:1014B00000F1080C08FA0CF8C2F8148091F803C087
:1014C000BCF1480F07D100F1080C4FF0010808FAF1
:1014D0000CF8C2F81080401C0828CED35460BDE838
:1014E000F0814FF6FF710180022181700421C170EB
:1014F00070470246002093680B400BB1012000E0CA
:10150000002070470146886880B27047024600207C
:10151000D3680B400BB1012000E00020704701466A
:10152000C86880B2704701617047416170470AB175
:10153000016100E041617047C16070474FF4803243
:101540000A438261816182618269826970470246D1
:101550000020434B18684FF68073184040EA021091
:1015600008433F4B186070473E49C8617047F0B56B
:101570000A46002300240021002500F00046B6F1B1
:10158000004F02D1364EF16901E0354E7168C0F36B
:10159000034583B200F44016B6F5401F08D121F090
:1015A00070612F4E766826F070662D4F7E6012E0D7
:1015B00000F48016B6F5801F06D1032606FA05F45E
:1015C000A14341F0706106E0460D360103FA06F6CC
:1015D000B14341F0706122B1460D360103FA06F6BF
:1015E000314300F00046B6F1004F02D11C4EF161CC
:1015F00001E01B4E7160F0BD30B500228B071C0F5F
:101600000F2303FA04F2164B08338C1053F82430DE
:101610009343134C08348D1044F8253023468C1026
:1016200053F824308C07240F00FA04F423430C4CA5
:1016300008348D1044F8253030BD0A49DC3108608B
:101640007047000000080140000C014000100140FC
:101650000014014000180140001C0140002001401E
:101660000000014000002042DF48006840F0010017
:10167000DD49086008464068DC490840DA494860AE
:1016800008460068DA490840D749086008460068FB
:1016900020F4802008600846406820F4FE0048607E
:1016A0004FF41F0088607047CF49096821F48031EA
:1016B000CD4A11601146096821F480211160B0F50E
:1016C000803F03D0B0F5802F0ED106E0C6490968EF
:1016D00041F48031C44A116007E0C349096841F40C
:1016E000A021C14A116000E000BF00BF704710B5E3
:1016F00001460022002300204A11012A02D1BA4CDF
:10170000236806E0022A02D1B74C236A01E0B64CF6
:10171000636A01F01F02012494401C400CB10120B7
:1017200000E0002010BD38B5002000900024002506
:1017300000BF3120FFF7DBFF05460098401C0090FA
:101740000098B0F5A06F01D0002DF2D03120FFF746
:10175000CEFF08B1012400E00024204638BD014638
:101760000020A14A106820F0F80040EAC100106093
:101770007047A04908607047024600209A4B58689D
:1017800020F47C1042EA01031843974B58607047DD
:1017900098490866704701460020934A506820F037
:1017A00003000843506070478F48406800F00C0009
:1017B0007047014600208C4A506820F0F000084332
:1017C0005060704701460020874A506820F4E0606E
:1017D00008435060704701460020834A506820F457
:1017E000605040EAC1005060704729B17E4A527A89
:1017F00002437D4B5A7204E07B4A527A82437A4B11
:101800005A7270477B49D831086070470146002002
:10181000754A506820F440400843506070470021EA
:10182000714A20321170704A82F82010012802D0CB
:1018300004280AD104E001216B4A2032117005E02E
:101840000521694A2032117000E000BF00BF7047D7
:101850006949086070476449096A0143624A116234
:101860007047654944390860704730B5002100224F
:10187000002400235C4D6D6805F00C0121B10429A2
:1018800005D0082923D105E05C4D056022E05B4DC1
:1018900005601FE0544D6D6805F47012524D6D687F
:1018A00005F48034022505EB92421CB9544D554392
:1018B00005600BE04C4D6D6805F400351DB1504DD1
:1018C0005543056002E04D4D5543056002E04B4D28
:1018D000056000BF00BF444D6D6805F0F0010909C7
:1018E000484D6B5C0568DD4045603F4D6D6805F413
:1018F000E061090A434D6B5C4568DD4085603A4D07
:101900006D6805F46051C90A3E4D6B5C4568DD4069
:10191000C560354D6D6805F44041890B3A4D6B5CEF
:10192000C568B5FBF3F5056130BD29B12E4A526992
:1019300002432D4B5A6104E02B4A526982432A4BE1
:101940005A61704729B1284A92690243264B9A612D
:1019500004E0254A92698243234B9A61704729B17A
:10196000214AD2690243204BDA6104E01E4AD2695F
:1019700082431D4BDA61704729B11B4AD26802438A
:10198000194BDA6004E0184AD2688243164BDA60D9
:10199000704729B1144A12690243134B1A6104E0DB
:1019A000114A12698243104B1A617047124940393B
:1019B000086070470F49C86470470B49C871704789
:1019C0000948406A40F08070074948627047014604
:1019D0000020054A92680A400AB1012000E0002078
:1019E0007047014988727047001002400000FFF8FC
:1019F000FFFFF6FE000042428004424200127A00DD
:101A000000093D00EA020020FA02002010B5044659
:101A1000FE48844208D10121C014FFF7ADFF002128
:101A2000E014FFF7A9FFC4E0B4F1804F08D1012111
:101A30000846FFF7AEFF00210120FFF7AAFFB8E03C
:101A4000F348844208D101210220FFF7A2FF0021C0
:101A50000220FFF79EFFACE0EE48844208D101214E
:101A60000420FFF796FF00210420FFF792FFA0E07B
:101A7000E948844208D101210820FFF78AFF0021AC
:101A80000820FFF786FF94E0E448844208D1012152
:101A90001020FFF77EFF00211020FFF77AFF88E07B
:101AA000DF48844208D101212020FFF772FF002186
:101AB0002020FFF76EFF7CE0DA48844208D1012144
:101AC0004014FFF759FF00216014FFF755FF70E045
:101AD000D548844209D10121C804FFF74DFF0021F8
:101AE0004FF40020FFF748FF63E0D048844209D15B
:101AF00001210805FFF740FF00214FF48010FFF798
:101B00003BFF56E0CA48844209D101214805FFF74E
:101B100033FF00214FF40010FFF72EFF49E0C548C6
:101B2000844208D101214020FFF733FF00214020EB
:101B3000FFF72FFF3DE0C048844208D101218020FB
:101B4000FFF727FF00218020FFF723FF31E0BB488C
:101B5000844208D101218015FFF71BFF0021A01549
:101B6000FFF717FF25E0B648844209D10121080498
:101B7000FFF702FF00214FF48030FFF7FDFE18E071
:101B8000B048844209D101214804FFF7F5FE002145
:101B90004FF40030FFF7F0FE0BE0AB48844208D171
:101BA00001218804FFF7E8FE00214FF48020FFF7B1
:101BB000E3FE10BD00220288944B98420ED0994B50
:101BC00098420BD0B0F1804F08D0914B984205D08D
:101BD000904B984202D0904B984204D14FF68F73AD
:101BE0001A404B881A438D4B984207D08C4B984231
:101BF00004D04FF6FF431A40CB881A4302808B88EB
:101C000083850B880385814B98420BD0854B984286
:101C100008D08B4B984205D08A4B984202D08A4B11
:101C2000984201D10B7A038601238382704770B5F5
:101C3000002400220023058C4FF6FE7635400584F3
:101C4000028C8388048B4FF68F752C40B51E2C4078
:101C50000D882C43751E2A400D892A434D882A433E
:101C60006A4DA8420BD06F4DA84208D0744DA842CF
:101C700005D0744DA84202D0734DA84213D14FF63F
:101C8000F7752A404D892A434FF6FB752A408D8807
:101C90002A434FF6FF652B404FF6FF552B408D89A9
:101CA0002B43CD892B4383800483CD888586028492
:101CB00070BD70B5002400220023058C4FF6EF762E
:101CC00035400584028C8388048B48F6FF752C40D0
:101CD0004FF6FF452C400D884FF6FF7606EA0525A6
:101CE0002C434FF6DF752A400D8906EA05152A4375
:101CF0004D8806EA05152A43444DA84202D0494DB5
:101D0000A8421DD14FF67F752A404D894FF6FF76C8
:101D100006EA05152A434FF6BF752A408D8806EA64
:101D200005152A434FF6FF352B404FF2FF752B4028
:101D30008D8906EA85052B43CD8906EA85052B4367
:101D400083800483CD880587028470BD70B500242C
:101D500000220023058C4FF6FF6635400584028C77
:101D60008388848B4FF68F752C404FF6FC752C4082
:101D70000D882C434FF6FF552A400D894FF6FF760C
:101D800006EA05252A434D8806EA05252A431F4D04
:101D9000A84202D0234DA8421DD14FF2FF752A4020
:101DA0004D894FF6FF7606EA05252A434FF6FF35A3
:101DB0002A408D8806EA05252A434EF6FF752B40FA
:101DC0004DF6FF752B408D8906EA05152B43CD890D
:101DD00006EA05152B4383808483CD88858702849A
:101DE00070BD70B5002200230024058C4EF6FF76EE
:101DF00035400584038C8488828B48F6FF752A4021
:101E00004FF6FF452A400D8820E00000002C0140DD
:101E10000004004000080040000C0040001000409A
:101E20000014004000340140004C014000500140CB
:101E30000054014000180040001C004000200040F9
:101E40000040014000440140004801404FF6FF7649
:101E500006EA05252A434DF6FF752B400D8906EA53
:101E600005352B434D8806EA05352B43FA4DA8422C
:101E700002D0FA4DA84208D14BF6FF752C408D894F
:101E80004FF6FF7606EA85152C4384808283CD8841
:101E9000A0F84050038470BD828B4FF2FF331A408C
:101EA0008283828B4FF6FF7303EA01231A438283F6
:101EB0007047F0B50C461546002200210026078C1D
:101EC0004EF6FF7C07EA0C070784828B018C4FF6E5
:101ED000FF7707EA043640F6FF473A404FF6FF77B0
:101EE00007EA05273A434FF6FF7707EA03373A43F5
:101EF000D94FB8420ED0D94FB8420BD0B0F1804F75
:101F000008D0D74FB84205D0D64FB84202D0D64FEE
:101F1000B84206D14DF6FF77394046F48057394331
:101F200005E047F6FF57394044F480573943828330
:101F30000184F0BD828B4FF6F3731A408283828B4B
:101F40000A4382837047F0B50C46154600220021F3
:101F50000026078C4FF6FF6C07EA0C070784828B7C
:101F6000018C4FF6FF7707EA04264FF60C773A40CC
:101F70004FF6FF7707EA03172F433A43B64FB842AD
:101F80000ED0B64FB8420BD0B0F1804F08D0B44F4E
:101F9000B84205D0B34FB84202D0B34FB84206D1D1
:101FA0004FF6FF57394046F48077394305E04FF24A
:101FB000FF57394044F48077394382830184F0BD70
:101FC000028B4FF2FF331A400283028B4FF6FF73EE
:101FD00003EA01231A4302837047F0B50C46154605
:101FE000002200210026078C4FF6EF7C07EA0C0741
:101FF0000784028B018C4FF6FF7707EA041640F640
:10200000FF473A404FF6FF7707EA03373A434FF668
:10201000FF7707EA05273A438F4FB8420ED08F4F1C
:10202000B8420BD0B0F1804F08D08D4FB84205D0E8
:102030008C4FB84202D08C4FB84206D14FF6DF77B2
:10204000394046F01007394305E04FF65F773940D5
:1020500044F01007394302830184F0BD028B4FF630
:10206000F3731A400283028B0A4302837047F0B570
:102070000C46154600220021068C4FF6FE773E40A6
:102080000684028B018C4FF60C7632407E1C06EAE9
:1020900003162E433243704EB0420ED06F4EB04204
:1020A0000BD0B0F1804F08D06D4EB04205D06D4ED0
:1020B000B04202D06C4EB04206D14FF6FD763140B0
:1020C00044F00106314305E04FF6F576314044F027
:1020D0000106314302830184F0BD70B505460C460C
:1020E0005D4885420ED05D4885420BD0B5F1804FEA
:1020F00008D05B48854205D05A48854202D05A48EC
:10210000854200D100E000BF208850B92389A28811
:1021100061882846FFF7ABFFE1882846FFF79EFF5E
:1021200025E0208804280AD12389A28861882846CE
:10213000FFF753FFE1882846FFF742FF17E02088AA
:1021400008280AD12389A28861882846FFF7FBFE68
:10215000E1882846FFF7EEFE09E02389A28861881E
:102160002846FFF7A6FEE1882846FFF795FE70BDDA
:102170002DE9F04105460C4600260127608808B984
:10218000022600E00026A088012801D1022700E0F5
:1021900001272088A0B92389A28861882846FFF7F3
:1021A00066FFE1882846FFF759FF23893A46314602
:1021B0002846FFF712FFE1882846FFF701FF13E0EA
:1021C0002389A28861882846FFF707FFE18828460F
:1021D000FFF7F6FE23893A4631462846FFF747FFC8
:1021E000E1882846FFF73AFFBDE8F0810A884B886E
:1021F0001A438B881A43CB881A430B891A434B899D
:102200001A438B891A43A0F8442070474FF6FF7198
:10221000818000210180C1804180017270470021CE
:10222000018041808180C180018141818181C181A2
:102230007047002101804180012181800021C180FF
:10224000018170470021018041808180C18001812E
:102250004181818170470000002C01400034014021
:102260000004004000080040000C004021B102883A
:1022700042F00102028004E002884FF6FE731A4029
:102280000280704731B1B0F8442042F40042A0F817
:10229000442005E0B0F84420C2F30E02A0F8442028
:1022A00070471AB183890B43838102E083898B4392
:1022B000838170478182704741EA0203A0F8483069
:1022C00070471AB183890B43838102E083898B4372
:1022D0008381704701894FF6F87211400181704780
:1022E0000A46002101894FF68F731940114301817D
:1022F000704730B504460D4629462046FFF7F0FFEB
:10230000208940F00700208130BD2DE9F0410446CE
:102310000D4616461F46602D06D13B46012231462A
:102320002046FFF75AFE05E03B4601223146204693
:10233000FFF79DFE29462046FFF7D2FF208940F097
:1023400007002081BDE8F08130B50C4600210189ED
:10235000C9B24FF6FF7505EA032515432543294306
:10236000018130BD2DE9F04105460E4617469846DD
:10237000002443463A4631462846FFF7E5FF2C89BC
:102380004FF6F870044044F007044FF68F70044095
:1023900044F070042C81BDE8F081F0B504460D4690
:1023A00016461F463B46324629462046FFF7CCFFDD
:1023B000208940F480402081F0BD018582827047F1
:1023C0000A46002101884FF68F731940114301809E
:1023D0007047F0B50C4615461E460021002200232A
:1023E0000189028B038C4FF6F877394021434FF671
:1023F000FC473A4040F201173A434FF6DD773B4045
:102400004FF6FF7707EA06172F433B43018102830C
:102410000384F0BD0A460021018B4FF68F731940EB
:102420001143018370470A460021018B48F6FF7370
:1024300019404FF6FF7303EA0223194301837047E3
:102440000A460021818B4FF68F7319401143818317
:1024500070470A460021818B48F6FF7319404FF6FA
:10246000FF7303EA022319438183704721B1028875
:1024700042F08002028004E002884FF67F731A4027
:102480000280704721B1828842F00402828004E019
:1024900082884FF6FB731A408280704721B1828890
:1024A00042F00802828004E082884FF6F7731A40F7
:1024B0008280704721B1828842F00102828004E06C
:1024C00082884FF6FE731A40828070470A460021C8
:1024D000018B4FF6F77319401143018370470A4689
:1024E0000021018B4FF2FF7319404FF6FF7303EA8F
:1024F00002231943018370470A460021818B4FF65E
:10250000F77319401143818370470A460021818B7C
:102510004FF2FF7319404FF6FF7303EA022319438A
:10252000818370470A460021018B4FF6FB731940E7
:102530001143018370470A460021018B4FF6FF3398
:1025400019404FF6FF7303EA0223194301837047D2
:102550000A460021818B4FF6FB731940114381839A
:1025600070470A460021818B4FF6FF3319404FF622
:10257000FF7303EA02231943818370470A4600214F
:10258000018B4FF67F7319401143018370470A4650
:102590000021018BC1F30E014FF6FF7303EA022302
:1025A0001943018370470A460021818B4FF67F73E0
:1025B00019401143818370470A460021818BC1F382
:1025C0000E014FF6FF7303EA02231943818370471C
:1025D0000A460021018C4FF6FD7319401143018416
:1025E00070470A460021018C4FF6F77319401143DA
:1025F000018470470A460021018C4FF6DF731940B1
:102600004FF6FF7303EA02131943018470470A4629
:102610000021018C4FF67F7319404FF6FF7303EAD8
:1026200002131943018470470A460021018C4FF6BA
:10263000FF5319404FF6FF7303EA02231943018445
:1026400070470A460021018C4FF2FF7319404FF684
:10265000FF7303EA02231943018470470A460021ED
:10266000018C4DF6FF7319404FF6FF7303EA0233F6
:1026700019430184704730B5002301248C40A3B274
:10268000048C9C430484048C02FA01F5ADB22C4303
:10269000048430BD30B5002304248C40A3B2048CE4
:1026A0009C430484048C02FA01F5ADB22C430484EB
:1026B00030BD70B5034600200024184618300125AF
:1026C0008D40ACB21D8CA5431D8409B1082909D1E8
:1026D00000EB6100056825F070050560056815438D
:1026E00005600EE00D1FC5F34E052844056825F46E
:1026F000E045056005684FF6FF7606EA0226354399
:10270000056070BD21B1028842F00202028004E03F
:1027100002884FF6FD731A400280704721B102888B
:1027200042F00402028004E002884FF6FB731A4074
:102730000280704721B1828842F08002828004E0EA
:1027400082884FF67F731A408280704702884FF666
:10275000F7731A40028002880A4302807047828819
:102760004FF68F731A40828082880A4382807047B6
:1027700002894FF6F8731A40028102890A430281E6
:10278000704702894FF67F731A40028102890A431B
:1027900002817047818470478185704781867047C8
:1027A0000187704781877047A0F840107047028802
:1027B0004FF6FF431A40028002880A4302807047A6
:1027C0000146888E70470146088F70470146888F02
:1027D00070470146B1F8400070470146888C704749
:1027E0000146088D704702460020138A0B400BB14A
:1027F000012000E000207047CA430282704730B5D4
:102800000246002000230024158A05EA0103958969
:1028100005EA010413B10CB1012000E0002030BD35
:10282000CA4302827047000010B50446FB48844248
:1028300009D101218803FFF79FF800214FF4804060
:10284000FFF79AF832E0F648844209D101214804A2
:10285000FFF79FF800214FF40030FFF79AF825E0CA
:10286000F048844209D101218804FFF792F8002141
:102870004FF48020FFF78DF818E0EB48844209D12F
:102880000121C804FFF785F800214FF40020FFF76D
:1028900080F80BE0E548844208D101210805FFF7E4
:1028A00078F800214FF48010FFF773F810BD2DE980
:1028B000F04786B005460E460024A24600BFA1465A
:1028C0000027B08900B100BF2F462C8A4CF6FF705C
:1028D0000440F08804432C82AC894EF6F310044087
:1028E000B08831890843718908430443AC81AC8ABC
:1028F0004FF6FF400440B0890443AC8201A8FEF7C4
:10290000B4FFC648874202D1DDF810A001E0DDF82F
:102910000CA0A88900F4004040B10AEBCA0000EB0B
:102920000A1031684900B0FBF1F807E00AEBCA0071
:1029300000EB0A1031688900B0FBF1F86420B8FBA5
:10294000F0F004012009642101FB1089A88900F43A
:10295000004040B1322000EBC900B0FBF1F000F0C4
:102960000700044308E0322000EB09106421B0FBAB
:10297000F1F000F00F0004432C8106B0BDE8F087B1
:102980004FF41651016000218180C18001810C212A
:10299000418100218181704710B502460020108AD4
:1029A0004FF2FF0318400B884C8823438C88234345
:1029B000CC8823431843108210BD00210180418040
:1029C0008180C180704721B1828942F400528281A6
:1029D00004E082894DF6FF731A4082817047F0B59A
:1029E0000346002400260025002040F66A17B9425D
:1029F00000D100BF1846C1F3421401F01F060127A1
:102A000007FA06F5012C01D10C3004E0022C01D1AB
:102A1000103000E014301AB107682F43076002E05D
:102A20000768AF430760F0BD1AB1838A0B43838206
:102A300002E0838A8B4383827047028A4FF6F073E9
:102A40001A400282028A0A430282704782894FF248
:102A5000FF731A40828182890A438281704721B1C3
:102A6000828942F00202828104E082894FF6FD737E
:102A70001A4082817047028A4FF6DF731A40028241
:102A8000028A0A430282704721B1028A42F48042DC
:102A9000028204E0028A4BF6FF731A4002827047FA
:102AA000C1F308028280704701468888C0F308009D
:102AB0007047818941F0010181817047028BD2B258
:102AC0000283028B42EA012202837047028B02F4E6
:102AD0007F420283028B0A430283704721B1828ABC
:102AE00042F02002828204E0828A4FF6DF731A40AD
:102AF0008282704721B1828A42F01002828204E011
:102B0000828A4FF6EF731A408282704721B1828A1F
:102B100042F00802828204E0828A4FF6F7731A407C
:102B20008282704721B1828942F40042828103E0AF
:102B30008289C2F30E028281704721B1828A42F4F7
:102B40000062828204E0828A4FF2FF731A4082821E
:102B50007047828A4FF6FB731A408282828A0A4348
:102B60008282704721B1828A42F00202828204E0AE
:102B7000828A4FF6FD731A40828270470246002017
:102B8000B1F5007F00D100BF13880B400BB10120CD
:102B900000E00020704701F40072B2F5007F00D120
:102BA00000BFCA430280704770B50246002400236C
:102BB0000025002040F66A16B14200D100BFC1F3E3
:102BC000421501F01F03012606FA03F3012D02D17D
:102BD0009689334006E0022D02D1168A334001E087
:102BE000968A33400C12012606FA04F41688344003
:102BF00013B10CB1012000E0002070BD10B500221F
:102C0000002340F66A14A14200D100BF0A12012439
:102C10009440A3B2DC43048010BD000000380140A2
:102C20000044004000480040004C0040005000407C
:102C300010B50446FA48844208D101214015FEF738
:102C40009BFE00216015FEF797FE17E0F5488442D1
:102C500008D101210015FEF78FFE00212015FEF797
:102C60008BFE0BE0F048844208D10121C803FEF737
:102C700083FE00214FF40040FEF77EFE10BD30B50C
:102C80000246002000235068E84C20400D790C6873
:102C900044EA0524204350609068E54C2040D1E987
:102CA00002542C434D7944EA450420439060D06A95
:102CB00020F470000C7C641EE4B2234340EA03500D
:102CC000D06230BD00210160017141718160C1603D
:102CD00001210174704721B1826842F001028260D3
:102CE00003E0826822F001028260704721B18268AD
:102CF00042F48072826003E0826822F48072826013
:102D0000704710B50023CBB21AB144681C4344602D
:102D100002E044689C43446010BD816841F00801B2
:102D200081607047014600208A6802F008020AB1FB
:102D3000012000E000207047816841F004018160BB
:102D40007047014600208A6802F004020AB101209F
:102D500000E00020704721B1826842F4A002826046
:102D600003E0826822F4A0028260704701460020DE
:102D70008A6802F480020AB1012000E00020704756
:102D800010B50A4600210023416821F46041531E1A
:102D900041EA4331416010BD21B1426842F4006212
:102DA000426003E0426822F4006242607047F0B57E
:102DB00004460D4600200021092D11DDE068A5F133
:102DC0000A0606EB4607072606FA07F18843A5F12F
:102DD0000A0606EB460603FA06F10843E0600CE03B
:102DE000206905EB4507072606FA07F1884305EB3E
:102DF000450603FA06F108432061072A0FDA606BE3
:102E0000561E06EB86071F2606FA07F18843561E54
:102E100006EB860605FA06F10843606322E00D2AF8
:102E20000FDA206BD61F06EB86071F2606FA07F17E
:102E30008843D61F06EB860605FA06F10843206391
:102E400010E0E06AA2F10D0606EB86071F2606FADF
:102E500007F18843A2F10D0606EB860605FA06F196
:102E60000843E062F0BD21B1826842F480128260C2
:102E700003E0826822F48012826070470146C86CC9
:102E800080B2704766484C300068704721B1426894
:102E900042F48062426003E0426822F48062426051
:102EA000704721B1426842F48052426003E04268B8
:102EB00022F48052426070470A460021816821F462
:102EC000E04111438160704721B1826842F40042C1
:102ED000826003E0826822F400428260704721B180
:102EE000826842F40212826003E0826822F40212D5
:102EF00082607047014600208A6802F400120AB11D
:102F0000012000E000207047F0B50446154600207F
:102F100000220026092911DDE068A1F10A0707EB6C
:102F2000470C072707FA0CF29043A1F10A0707EBB9
:102F3000470703FA07F21043E0600CE0206901EB59
:102F4000410C072707FA0CF2904301EB410703FA03
:102F500007F210432061A06BC0F30156EF1C06F18D
:102F6000010CA7EB0C0707EB870C1F2707FA0CF2E5
:102F70009043EF1C06F1010CA7EB0C0707EB87074A
:102F800001FA07F21043A063F0BD10B50A46002114
:102F90000023816B21F44011531E41EA03518163E8
:102FA00010BD08B5002300930090009B0B440093D4
:102FB000009B1A6008BD08B50246002000900092F0
:102FC00001F12800009B184400900098006880B22E
:102FD00008BD0A4600214168164B19401143416063
:102FE00070474162826270470A460021416821F0C1
:102FF0001F0111434160704740B109490831096818
:1030000041F40001064A0832116007E00449083122
:10301000096821F40001024A08321160704700007B
:103020000024014000280140003C0140FFFEF0FF69
:10303000FDF7F1FFFFFD3FFF0246002013680B4044
:103040000BB1012000E000207047CA4302607047C6
:1030500070B502460020002300240B125568CEB242
:1030600005EA060415681D4015B10CB1012000E009
:10307000002070BD00220A12D343036070477047DE
:103080000FB41CB5074B06AA7B446946009005980F
:1030900000F0A7FA0020694600F0B6FA1CBC5DF803
:1030A00014FB00007D0500002DE9F0474FF0000AF9
:1030B00089460446C0F820A02046E16888470028D9
:1030C00076D0252806D0D4E901219047206A401CFB
:1030D0002062F1E7E168204600258847C4F81CA07B
:1030E00006460027C4F818A02A2E09D0304600F062
:1030F000C8FF38B304EB8708303EC8F8186019E001
:1031000059F8041B204604EB87029161E168884767
:10311000012F064618D1E069002820DA25F02005A5
:103120001DE0D8F8180000EB800006EB40003038B6
:10313000C8F818002046E1688847064600F0A1FF5D
:103140000028EED1012F0AD02E2E08D12046E168AA
:1031500088477F1C0646022F45F02005C4DBA06986
:10316000002803DA404245F00105A061E80701D0DC
:1031700025F01005B6B1A6F14100192802D8203675
:1031800045F400654A463146204625604D46FDF728
:1031900029F858B1012806D0ED1D25F0070000F1EF
:1031A000080989E704E005F1040985E730468AE764
:1031B000206ABDE8F08770477047704770477047D6
:1031C0002DE9FF4F0C461E464FF0FF378BB0D2E97A
:1031D0000001DDF860800A908A46C1F30A5505B9FE
:1031E0003D46002108464FF00000BAF1000F00F400
:1031F000400005DA00EB80004FF4400101EA500086
:103200004FEA9059B9F1010F00DDB9460A9850EA2A
:103210004A000ED044F61050A5F2FF3545432F1456
:10322000B8F1000F1ED07542291E1EDDC9F1000243
:103230001CE0B8F1010F4FF0000001D0302103E095
:10324000F24305E02154401CB042FBDB3046002233
:10325000002121540B99C1F80880C1E900200FB06A
:10326000BDE8F08FBD1B6D1CDEE74A4600DA6942FF
:1032700006A800F059FA06AB93E8070003AB83E811
:10328000070050460A9900F02DFB8DE80700A0F5D5
:1032900000501F3800900398002D09DD42F21F01F5
:1032A0004A46084403A90390684600F08CFD08E0F4
:1032B000A0F500504A461F3803A90390684600F065
:1032C00096FD8DE807000004000C03D04FF0FF309E
:1032D000410800E01046B8F1000F03D00022009230
:1032E00015461EE0751E05D400F098F9303262557F
:1032F0006D1EF9D5B3460122084302D000227F1C7F
:1033000004E02078302801D100227F1E002A09978E
:1033100086D01DE0112D07DA00F080F930326255B9
:103320006D1C50EA0102F5D1084302D00098C8B1E3
:103330000EE00021681E05E0235C625C63542254A9
:10334000401E491C8142F7DBAB46A81B401E09907A
:10335000002004F80B000B98099AC0F80880C0E917
:10336000002B7CE711264FF0000859E72DE9F04FBC
:1033700088460446D21D22F0070191B0D1E9000130
:10338000CDE90A0100F069FE02460B98C00F01D09A
:103390002D2007E02068810701D52B2002E02021A5
:1033A00001EAC000032A099001D0072A05DB034681
:1033B0004146204600F078F90BE12078800601D5DF
:1033C000E06900E00620B8F1650F814606D0B8F14B
:1033D000660F18D0B8F1670F70D131E00020B9F155
:1033E000110F009001DB112301E009F101030AAA8A
:1033F00001A90CA8FFF7E4FEDDE90C70002609F135
:103400000105834647E001204B4600904FF00047FE
:103410000AAA01A90CA8FFF7D3FEDDE90DB00C99AB
:103420005D46002610B909F101000D18B9EB050041
:1034300003D4C0F1FF3609F10105A5EB09002BE02B
:10344000B9F1010F01DA4FF001090020B9F1110FB4
:103450000090484601DD112300E003460AAA01A9B5
:103460000CA8FFF7ADFEDDE90C704D460026834643
:10347000207800070AD4AB4500DA5D4601A8012D8B
:1034800004DD411911F8011C302907D04F4502DA3B
:1034900017F1040F04DA012082460FE06D1EEEE7FB
:1034A000002F02DCED1B3E4403E0781CA84200DD47
:1034B0007D1CB81B00F1010A4FF00047207800077F
:1034C00003D4AA4501DB4FF0FF3A0021B7F1004FCA
:1034D0000DF143088DF8431024D002202B23002F38
:1034E00001DA7F422D230A21021EA0F1010000DC37
:1034F0005FB197FBF1FC97FBF1F201FB1C7C1746D7
:103500000CF1300C08F801CDEEE7A8F101000370D2
:103510002188090501D5452100E06521A0F10108B8
:1035200000F8011C09980FA9A1EB0807FF1D00B1C5
:103530000120411901EBEA70A1693844081A401EC4
:10354000A0612078C00602D42046AFF3008009981D
:1035500028B1D4E901219047206A401C20622078DC
:10356000C00622D52046AFF300801EE0002E04DB0B
:10357000B34502DD01A8805D00E03020D4E90121DF
:103580009047206A401C2062761CAAF101005FEA85
:10359000000A0AD100F03EF8C0680168405CD4E936
:1035A00001219047206A401C2062281EA5F10105D8
:1035B000DCDC07E0D4E9012118F8010B9047206A10
:1035C000401C2062381EA7F10107F3DC2046AFF350
:1035D0000080032011B043E601694A1C02610878AB
:1035E000704700B58FB0CDE9013100210591054943
:1035F0007944CDE9031011466846FFF755FD0FB039
:1036000000BD0000E5FFFFFF0A6802F8010B0A6039
:103610007047000000487047B807002030B5B0F18F
:103620000A024FEA900E71F100034EEA817EB0EB80
:103630000E0061EB91014FEA101E4EEA017E10EB85
:103640000E0041EB11114FEA102E4EEA016E10EB05
:103650000E0041EB11214FEA104E4EEA014E10EBE5
:103660000E0041EB1141401841F100014FEAD0003A
:1036700040EA41704FEAD10110EB80054FEA810426
:1036800044EA907444EB01046D1944EB0404521BAA
:10369000A3414FF0000348BF0A3200D530BD401CA3
:1036A00041F1000130BD00002DE9F0411F46044604
:1036B00003260168072A01F4006004DB08B116A59F
:1036C00005E016A503E008B115A500E015A521F059
:1036D00010002060A069C01EA0610FB1401EA06153
:1036E0002046AFF300804FB1D4E90121384690471E
:1036F000206A401C2062C01C206206E0206AFAE7B3
:10370000D4E9012115F8010B9047761EF8D2204626
:10371000AFF30080BDE8F0814E414E006E616E0057
:10372000494E4600696E66002DE9F047814616460F
:103730008AB0334878440DC88DE80D00304878448D
:10374000801C03AC0DC884E80D0041F69B30084492
:10375000372190FBF1F290FBF1F5A5F1800501FB1B
:1037600012041B3C02D56442012000E00020DFF877
:1037700090A080460027FA44AAF1BE0A0DE0E007B7
:1037800009D03246684607EB47010AEB810100F099
:103790002EFB8DE8070064107F1C002CEFD1184F22
:1037A0007F44AC3F18E0E80714D007EB04100DF19C
:1037B000180A90E80E008AE80E00C068F04201D1B5
:1037C00098190890324606A903A800F010FB03AB35
:1037D00083E807006D10641C002DE4D13246694671
:1037E000B8F1000F03A802D000F0EDFA01E000F0FC
:1037F000FEFAC9E90001C9F808200AB0BDE8F0875F
:10380000D810000000487047980700207546FFF761
:10381000F9FFAE4605006946534620F0070085468D
:1038200018B020B5FDF7F2FCBDE820404FF00006CF
:103830004FF000074FF000084FF0000B21F0070198
:10384000AC46ACE8C009ACE8C009ACE8C009ACE8DB
:10385000C0098D4670470446AFF300802046FCF750
:10386000DBFC00004FF0013C50F8042B51F8043B06
:103870009A4221D1A2EB0C03934313EACC1317D144
:1038800050F8042B51F8043B9A4215D1A2EB0C03DB
:10389000934313EACC130BD150F8042B51F8043B9B
:1038A0009A4209D1A2EB0C03934313EACC13DBD069
:1038B0004FF00000704700BFD01A01BAB1FA81F191
:1038C00001F0180122FA01F0CB40C1F12001DBB276
:1038D000C0B2C01A2CFA01F3D11A914311EAC311F4
:1038E000E6D170475FEA400C08BF91F0000F4FEA45
:1038F0008C234FEAC12243EA51514FEA1C5018BFB2
:1039000000F5F0404FEA300018BF41F000415FEA97
:103910006C5C00F02980BCF1FF3F08BF40F08040A4
:103920007047130C06BF12044FF0100C4FF0000C40
:10393000130E04BF12020CF1080C130F04BF120186
:103940000CF1040C930F04BF92000CF1020CD30F86
:1039500004BF52000CF1010C11464FF00002A0F11F
:103960001F00A0EB0C00704711F0004F08BF70471C
:1039700031F000413FF4D5AF0B0C06BF09044FF006
:10398000100C4FF0000C0B0E04BF09020CF1080CD8
:103990000B0F04BF09010CF1040C8B0F04BF89004D
:1039A0000CF1020CCB0F04BF49000CF1010CCCF15F
:1039B0002003A0EB0C0022FA03F302FA0CF241EA16
:1039C000030100F10100704720F07F4C80EA030002
:1039D00023F07F47ACEB070303F57C5300F0004076
:1039E00003F1FF032DE980494FEA154B09B44FEA73
:1039F000144325EA0B4E24EA03480FF2042606EB93
:103A0000132749083E785FEA320203FB0667C7F5D1
:103A1000000707FB06F64FEA54374FEAD64606F191
:103A2000020607FB066CCCF1005C4FEA1C472CEA4F
:103A3000074C07FB06F40CFB06F504EB15464FEAB2
:103A4000961634BF00204FF000404FEAD13706FBF6
:103A500007FC4FEA1C4C0CFB0BF7D21B03FB0CF7CB
:103A600061EB07010CFB0EF7B0EB074072EB17425E
:103A70000CFB08F734BFA2EB0742B2EB074261EB45
:103A800017414FEA0C444FEA910706FB07FC4FEA47
:103A90001C4C0CFB0BF7B0EBC74072EB573203FB2F
:103AA0000CF734BFA2EBC742B2EBC74261EB573110
:103AB0000CFB0EF7B0EBC70072EB57720CFB08F76C
:103AC00034BFA2EBC702B2EBC70261EB5771039F91
:103AD0004FEA816141EA921104EBCC044FEAD137FD
:103AE0004FEA826206FB07FC42EA90124FEA8060CE
:103AF0004FEA1C4C0CFB0BF7D21B03FB0CF761EBE2
:103B000007010CFB0EF7B0EB074072EB17420CFB02
:103B100008F734BFA2EB0742B2EB074261EB174153
:103B20004FEA8C554FEA910704EB9C2406FB07FCF7
:103B30004FEA1C4C0CFB0BF7B0EBC74072EB573253
:103B400003FB0CF734BFA2EBC742B2EBC74261EBF9
:103B500057310CFB0EF7B0EBC70072EB57720CFB42
:103B600008F734BFA2EBC702B2EBC70261EB577193
:103B700015EB4C254FEA816141EA92114FEA8262CE
:103B80004FEAD13742EA901206FB07FC44F10004E9
:103B90004FEA80604FEA1C4C0CFB0BF7D21B03FB77
:103BA0000CF761EB07010CFB0EF7B0EB074072EB73
:103BB00017420CFB08F734BFA2EB0742B2EB0742F7
:103BC00061EB174115EB1C154FEA813141EA924137
:103BD0004FEA823242EA90424FEA80304FEA0C7656
:103BE00044F1000448EA03434EEA0B484FF0000E4C
:103BF000B2EB080C71EB030724BF624639464EEB6B
:103C00000E0E4FF0000B0018524149414BEB0B0BCD
:103C1000B2EB080C71EB03077BF1000B24BF62468B
:103C200039464EEB0E0E4FF0000B00185241494141
:103C30004BEB0B0BB2EB080C71EB03077BF1000BAA
:103C400024BF624639464EEB0E0E51EA020718BFFA
:103C500046F0010616EB0E7655F1000254F1000114
:103C600003D5BDE88901BDE80088BDE88901BDE84C
:103C70000048B619524141EB0101A3F1010370471D
:103C800080807F7E7D7C7B7A797877767675747399
:103C9000727171706F6E6E6D6C6C6B6A6A69686858
:103CA000676666656464636362616160605F5F5EEE
:103CB0005E5D5D5C5C5B5B5A5A5959585857575664
:103CC00056555555545453535252525151505050C9
:103CD0004F4F4F4E4E4D4D4D4C4C4C4B4B4B4A4A1B
:103CE0004A4949494848484747474746464645455F
:103CF0004544444444434343434242424241414198
:103D0000002B26D4770021D01CB54FEA370703B427
:103D10004FF010004FF010014FF000000FBCBDE855
:103D200010400BF1010BBBF1010F08BF5FEA170751
:103D300022BF12F1010211F101014FF0004143F1E4
:103D4000000300F0004043EA00007047F9D3570831
:103D5000DAE746EA064613F1400F4FEA16461FDD42
:103D600013F1200FDFBF16430A46002120335B42C8
:103D7000C8D0C3F1200746EA064602FA07F74FEA21
:103D8000164646EA0706C3F1200722FA03F201FAB3
:103D900007F721FA03F14FF0000342EA0702B1E707
:103DA00046EA020646EA06464FEA164646EA010693
:103DB000BCBF46EA0646360C4FF000034FF0000247
:103DC0004FF000019EE72DE9C048934630B491E8DA
:103DD000380007C831EA400C48BF34EA430C03D529
:103DE000FFF7F2FDFFF78CFFF0BCBDE800882DE97E
:103DF000C048934630B491E8380007C810F0804FAF
:103E000008BF13F0804F03D100F005F8FFF778FFEB
:103E1000F0BCBDE8008820F07F4780EA030023F073
:103E20007F4C07EB0C03A3F57C5300F00040A3F19B
:103E3000FE0392F0000F00F0B38095F0000F00F049
:103E400077802DE901494FEA11404FEA144621EAF3
:103E5000004800FB06FC24EA064708FB06F607FBC1
:103E600008F800FB07F718EB06484CEB164C4FEA36
:103E7000124B18EB07484FEA15464CEB174022EA65
:103E80000B4E0BFB06FC25EA06470EFB06F607FB6E
:103E90000EFE0BFB07F71EEB064E4CEB164C4FF0DD
:103EA00000061EEB074E4CEB174B18EB0B0840F1CE
:103EB000000018EB0E0B58EB000840F100008F1AC1
:103EC0004FF000013CBFC943661B14BFB5EB040CA7
:103ED00000213CBFC943F61B4FEA17444EEA8E0E41
:103EE00027EA04454FEA1C4704FB07622CEA074C0B
:103EF00005FB07F70CFB05F604FB0CFC16EB07466D
:103F000042EB174216EB0C4642EB1C421BEB06063B
:103F100058EB0202414146EA9E0601D5BDE80189FF
:103F2000B619524141EB0101A3F10103BDE801893A
:103F30004FEA14454FEA114724EA054621EA074CA7
:103F400005FB07F406FB07F70CFB06F105FB0CFC71
:103F500011EB074144EB17444FEA124711EB0C41B8
:103F600044EB1C4422EA074C05FB07F206FB07F76B
:103F70000CFB06F605FB0CFC16EB074642EB174262
:103F800016EB0C4642EB1C456A1854F1000148BF81
:103F90007047B619524141EB0101A3F1010370478B
:103FA00095F0000F37D04FEA11424FEA144721EA4B
:103FB000024624EA074C02FB07F106FB07F70CFB5D
:103FC00006F402FB0CFC14EB074441EB17414FEAEB
:103FD000154714EB0C4441EB1C4125EA074C02FB4E
:103FE00007F506FB07F70CFB06F602FB0CFC16EBCD
:103FF000074645EB174516EB0C4645EB1C421219DC
:1040000051F1000148BF7047B619524141EB01011F
:10401000A3F1010370474FEA14454FEA114724EA20
:10402000054621EA074C05FB07F106FB07F70CFBE9
:1040300006F24FF0000605FB0CFC12EB074241EBC9
:10404000174112EB0C4251EB1C4148BF70479218CC
:1040500041EB0101A3F101037047490050EAC1207F
:1040600018BF04204A0D18BF40F0010040F2FF7253
:10407000B2EB515F08BF40F00200012808BF0520E5
:10408000704730380A2801D201207047002070475D
:1040900010B500290AD00878002807D005487844D0
:1040A000FFF7E0FB002801D0002010BD0248784453
:1040B00010BD0000AA070000A207000021F0004286
:1040C000A2F16052B2F5801F01F0004328BFD2F187
:1040D0007F6C0BD95FEA001C43EAC20242EB5070CE
:1040E00018BF704728BF20F001007047B2F5801F4D
:1040F000BCBF184670474FEA410C1CF5001F02D2A6
:10410000084600F03FBB70B500F074F9000000896C
:10411000FFF7F6BF4FF00040A0F5800070470000A9
:1041200010B591EA030F48BF83F0004300F1BE8150
:10413000841A71EB030C05D2121943EB0C03001B1C
:1041400061EB0C01DFF824E14FEA1154A4EB135C9E
:104150001EEA430F18BF9EEA445F73D023EA0E03A2
:10416000DCF1200E21EA045143F4801332D322FA09
:104170000CFE10EB0E0023FA0CFE41EB0E01CCF10D
:10418000200E03FA0EFE10EB0E0051F10001B1F506
:10419000801FCCF1200E32D201EB045112FA0EF244
:1041A000BDE8104058BF7047401C38BF5FEA42026C
:1041B00018BF7047002814BF20F0010041F1000132
:1041C0004FEA410313F5001F38BF7047A1F1C0410A
:1041D00000F05EB9012A43EB0302ACF1200CDCF1E4
:1041E0001F0E32BF4FF0000E23FA0CF310EB03004A
:1041F00041EB0451B4EB115FD0D0A1EB045101F5B8
:10420000801149085FEA300001EB04510ED350F1F0
:10421000000038BF12FA0EFE08D1BDE81040C9E711
:10422000401C38BF5FEA4202CAD1C3E7BDE8104074
:104230004FEA410313F5001F38BF7047A1F1C04199
:1042400000F026B99EEA445F08D011EA5E0FBDE88F
:10425000104004BF01F0004100207047BDE810404D
:1042600070B500F0C7F800BF64FBBE3E0000E0FF81
:1042700010F0004248BF4042B0FA80F310FA03F158
:104280000AD0C3F11D0303F580634FEA415002EBEE
:10429000035202EBD12170474FF00000704700003D
:1042A000DFF848C170B51CEA111E1EBF1CEA1315C9
:1042B0009EEA0C0F95EA0C0F00F06F8081EA030470
:1042C00023EA4C134EEAD47E21EA4C1141F48011CA
:1042D00043F48013AE44A1FB024CA0FB0365AEF196
:1042E0007F7E361955EB0C05A1FB034C4CF1000306
:1042F000A0FB021C16EB0C06654153F100030942BA
:1043000018BF46F0010613F4007F0BD14FEA0331CA
:104310004FEA0530340341EA155140EA16506FF078
:1043200003020AE04FEAC3214FEAC520F40241EA42
:10433000555140EA56506FF0020202EB2E4201EB5B
:10434000025585EACE710AD05FEA440C18BF24F00A
:10435000004450F1000041F1000120EAD47040F225
:10436000FE7C624500D270BDA84214BF4FF080446D
:104370004FF04044002E08BF0024BEF1806FA8BF5C
:10438000A1F1C041BDE8704080F282804FF0000092
:1043900001F1C04101F0004170479EEA0C0F0CEAA8
:1043A000131518BF95EA0C0F06D04FF0000081EAF4
:1043B000030E0EF0004170BD00F01CF88900013EB4
:1043C00000F007B800F009B84FEA430C5FEA5C5C04
:1043D00008D081EA030100F05BB84FEA410C5FEAC4
:1043E0005C5CF6D14FF00000014970470000FF0708
:1043F0000000F87F0EF1020E2EF0030E5EF8046B43
:10440000364205D4012A43EB030515F5001F12D8E7
:10441000012841EB010C1CF5001F0CD80ED14FEA0E
:10442000D17C15F5001F0CEB4C0C0CF1020C08BFF5
:104430004CEBD37C04E04FF0080C01E04FEAD37C56
:104440000CEB4C0526FA05F606F00706B6F1040C4F
:1044500006D20EEB860CBDE870404CF0010C6047B4
:10446000DFE80CF0090B02024FF000414FF00000B2
:10447000A1F5002170BD19461046012851EB010439
:1044800018BFD4F5001484BF002001F0004170BDB6
:104490000808A0F500114FEA3101704710B591EA04
:1044A000030F48BF83F000433FF542AE841A71EB1F
:1044B000030C07D212198CF0004C43EB0C03001BC9
:1044C00061EB0C01DFF8A4E14FEA1154A4EB135C9B
:1044D0001EEA430F18BF9EEA445F00F0B08023EA53
:1044E0006E03524221EA0451C3EB6E0338BF5B1ED8
:1044F000DCF1200E25D322FA0CFE10EB0E0043FA5D
:104500000CFE41EB0E01CCF1200E03FA0EFE10EB77
:104510000E0051F10001CCF1200E29D412FA0EF256
:1045200001EB0451BDE8104058BF7047401C1CBF50
:10453000B2F1004F704700280CBF491C20F0010069
:10454000704712EB020E43EB030218BF4FF0010E4F
:104550004EEA4202ACF1200CDCF11E0E54D943FAB3
:104560000CFE10EB0E0051F1FF31CCF11E0ED5D533
:104570000EF1010E12FA0EFE404141EB010101EB7A
:10458000445C5FEA5C5C10D910EBDE7001EB045117
:1045900038BFBEF1004FBDE8104018BF704700287B
:1045A0000CBF491C20F00100704730D24FEAD42CD8
:1045B00011F5001124F400641BD0B1FA81F20B3A1A
:1045C000A41AA41ED2F12003914030FA03F3194338
:1045D000904001EBCC71002C01EB0451BDE8104080
:1045E000A8BF704701F1C0414FF0000001F0004149
:1045F0007047B0FA80F310FA03F100D110BDE41A4D
:10460000173C4805C90AE4E701EB045110BD491005
:1046100001EB0451BDE810404FEA300002E04FF0DA
:10462000000170474A0008BF0042F8D0B2F5001FF1
:1046300028BF704701F000414FF0000070479EEA2C
:10464000445F07D011EA5E0FBDE8104004BF0021AF
:1046500000207047BDE8104070B5FFF7CBFE00BFEB
:1046600040DFF63E83F00041104670470000E0FF57
:1046700043004FEAD30C4FEA3C0C43401FBF4007B6
:104680000CF1605113F0FE4F70471CF0006F03D126
:1046900000200CF0004170470CF0004343EA5070DA
:1046A00010B540EACC0000F027F800BF00000092EF
:1046B0004FEA0001FFF7ECBE4FF000414FF0000061
:1046C000A1F500217047000010F0004148BF4042B2
:1046D000B0FA80F310FA03F2C3F19D030BD051EA54
:1046E000C35101EB1220530638BF704700F101009F
:1046F00008BF20F0010070470EF1020E2EF0030EED
:104700005EF8044B244204D44FEA4102B2F17F4FD9
:1047100011D84FEA4003B3F17F4F0CD80ED14FEAC6
:10472000D07CB2F17F4F0CEB4C0C0CF1020C08BFAB
:104730004CEBD17C04E04FF0080C01E04FEAD17C57
:104740000CEB4C0324FA03F404F00704B4F1040C5A
:1047500006D20EEB840CBDE810404CF0010C604713
:10476000DFE80CF0070802024FF00040A0F58000DF
:1047700010BD0846420018BFD2F1807288BF00F019
:10478000004010BDFF2141EAD050C0057047FEF740
:10479000EDBD000002400000000000A0000000008D
:1047A00005400000000000C8000000000C400000B0
:1047B0000000409C00000000194000000020BCBE2A
:1047C0000000000034400000BFC91B8E0000000440
:1047D000B5400000504BCFD06607E2CF010000008B
:1047E0006C4100003E8251AADFEEA73401000000B8
:1047F000D9420000DCB5A0E23A301F97FFFFFFFF6F
:10480000B4450000FD25A0C8E9A3C14FFFFFFFFF8D
:10481000FF3F00000000008000000000FF3F00009C
:104820000000008000000000644800080000002034
:10483000000300006C010008984A000800030020F3
:10484000F80A0000C80100081C0000004300000036
:10485000F8FFFFFF0C0000000E0000000F0000003A
:104860002E00000001369A30033184A24A049009D8
:104870000102030406070809422F1A0702111B143C
:104880007F021116242A7F2A121662640813232637
:104890003649552250430503341C22411C41221C39
:1048A0002A15083E08141A0806320823A0602A08B0
:1048B00001211A600B11162010080402263E5149EE
:1048C000453E1C427F400515615149461621414530
:1048D0004B31161814127F10162745454539163CE2
:1048E0004A4949301C017109621636494949362640
:1048F000064949291E4336362A56062B0814782ABB
:104900001401297E131408160201510906163249B2
:1049100059513E167C1211127C3A7F3C163E4141A1
:1049200041221A7F053A1C1212411E7F0909090112
:10493000181449497A1A7FA11A7F421A7F4E1E2005
:1049400040413F0112295B1B7F400111167F020C81
:10495000027F3E7F0408107F483A3E3C1A060C1C3A
:1049600051215E0C141929461A46541231160101C0
:104970007F01011A3F35123F1E1F2040201F0C1AD5
:10498000380C16631408146316070870080719EF2B
:10499000234543198B211B552A0219781A417D168C
:1049A000040201020429712240290B1116205454DB
:1049B0005478167F484444382E3844444420061323
:1049C000487F1A3818121816087E0901021D18A40B
:1049D000A4A4E425080404781B447D3B1D40808486
:1049E0007D5F341028441B417F121C7C04181E3A42
:1049F0007C242948123816FC242424181A18053A55
:104A0000FC1812081A4854122016043F444020167D
:104A10003C4040207C1A1CC01A1C0C1430403C2B1B
:104A200044284F161CA0A0A07C3F4464544C44145E
:104A3000011389F215FF01F9FF12FC22FF3B070465
:104A4000C2140104071311F618090424E42424FFF6
:104A5000050618191617030101010207100C8A6ACE
:104A6000FF4920AFA9E9A9AF20120112071C0404D5
:104A7000043619EA100BFE424A4A5BEA5A4AC2421D
:104A80002306011917011319472A040420090607F0
:084A90000809020406080000F9
:0400000508000131BD
:00000001FF
